:020000040800F2
:100000000050002059110008B1030008B303000894
:10001000B5030008B7030008B9030008000000009A
:10002000000000000000000000000000BB0300080A
:10003000BD03000800000000BF030008C103000862
:10004000A1110008A1110008A1110008A1110008C8
:10005000A1110008A1110008A1110008A1110008B8
:10006000A1110008A1110008A1110008A1110008A8
:10007000A1110008A1110008A1110008A111000898
:10008000A1110008A1110008A1110008A111000888
:10009000A1110008A1110008A1110008A111000878
:1000A000A1110008A1110008A1110008A111000868
:1000B000A1110008A1110008A1110008A111000858
:1000C000A1110008A1110008A1110008A111000848
:1000D000A1110008A1110008A1110008A111000838
:1000E000A1110008A1110008A111000800000000E2
:1000F0000000000000000000000000000000000000
:0C01000000000000000000005FF808F1A3
:10010C000348044B834202D0034B03B1184770479A
:10011C000C0000200C0000200000000005480649DF
:10012C000B1AD90F01EBA301491002D0034B03B1F9
:10013C00184770470C0000200C0000200000000045
:10014C0010B5064C237843B9FFF7DAFF044B13B113
:10015C000448AFF300800123237010BD0C00002075
:10016C0000000000A411000808B5044B1BB10449A1
:10017C000448AFF30080BDE80840CFE70000000062
:10018C0010000020A411000870B50D4E0D4D761B0B
:10019C00B61006D0002455F8043B01349847A6420B
:1001AC00F9D1094E094D00F0F7FF761BB61006D0B9
:1001BC00002455F8043B01349847A642F9D170BD90
:1001CC00E8110008E8110008EC110008E81100081B
:1001DC00830730B548D0541E002A3FD00346CAB21C
:1001EC0001E0013C3AD303F8012B9D07F9D1032C14
:1001FC002DD9CDB245EA05250F2C45EA054536D952
:10020C00A4F1100222F00F0C03F1200EE6444FEA89
:10021C00121C03F1100242E9045542E90255103256
:10022C007245F8D10CF1010214F00C0F03EB021221
:10023C0004F00F0C13D0ACF1040323F003030433CC
:10024C00134442F8045B9342FBD10CF003042CB131
:10025C00CAB21C4403F8012B9C42FBD130BD64464E
:10026C001346002CF4D1F9E703461446BFE71A46AF
:10027C00A446E0E784B00F4B9A6942F020029A61E1
:10028C009A6902F020020192019A9A6942F00402E2
:10029C009A619A6902F004020292029A9A6942F0F7
:1002AC0008029A619B6903F008030393039B04B053
:1002BC00704700BF0010024072B6FEE708B50A484E
:1002CC000A4B03600A4B436000238360C3604FF406
:1002DC008042026143618361C361036200F0FEF8F6
:1002EC0000B908BDFFF7E8FF2800002000540040CB
:1002FC00801A060008B50A480A4B03604FF4E13334
:10030C00436000238360C36003610C2242618361FC
:10031C00C36100F0EBFE00B908BDFFF7CDFF00BFD5
:10032C007C0000200038014000B591B0282200214B
:10033C0006A8FFF74DFF0023019302930393049348
:10034C000593012206924FF4803307930A920222FE
:10035C000D920E934FF4E0130F9306A800F0FCF9E6
:10036C0080B90F23019302210291002303934FF4D0
:10037C0080620492059301A800F020FC20B911B012
:10038C005DF804FBFFF798FFFFF796FF08B500F048
:10039C00A9F9FFF7C9FFFFF76DFFFFF78FFFFFF715
:1003AC00A9FFFEE7FEE7FEE7FEE7FEE7FEE7704784
:1003BC007047704708B500F0A7F908BD82B00E4B26
:1003CC009A6942F001029A619A6902F00102009264
:1003DC00009ADA6942F08052DA61DB6903F08053EB
:1003EC000193019B054A536823F0E06343F00073CB
:1003FC00536002B0704700BF001002400000014083
:10040C0010B586B0002302930393049305930268FE
:10041C00114B9A4201D006B010BD104CA36943F0A9
:10042C000803A361A36903F008030093009BC02396
:10043C000293122303930323059302A9084800F0A7
:10044C0099FCE36943F40013E361E36903F40013DB
:10045C000193019BDFE700BF0054004000100240F5
:10046C00000C014010B586B0002302930393049353
:10047C0005930268174B9A4201D006B010BD03F5E4
:10048C0058439A6942F480429A619A6902F4804214
:10049C000092009A9A6942F004029A619B6903F0F7
:1004AC0004030193019B4FF4007302930223039303
:1004BC0003230593084C02A9204600F05BFC4FF483
:1004CC008063029300230393049302A9204600F057
:1004DC0051FCD2E70038014000080140002800F030
:1004EC00CC8070B5044690F83D30002B77D0242397
:1004FC0084F83D302268136823F0010313602268EE
:10050C00136843F4004313602268136823F4004318
:10051C00136000F00FFC62685A4B9A4264D85A4B35
:10052C0098428CBF00230123002B40F0A880574930
:10053C00A1FB00318B0C25686A6822F03F0242EA6D
:10054C0091426A6021680A6A22F03F0266684D4D4A
:10055C00AE424FD8013313430B622168CA6922F4AF
:10056C004F4222F0FF026668464B9E424CD8431E17
:10057C007600B3FBF6F3013340F6FC70034278D0FF
:10058C00C3F30B031343CB6121680B6823F0C00347
:10059C00E269206A024313430B6021688B6823F4E1
:1005AC00034323F0FF032269E068024313438B608B
:1005BC002168CB6823F0FF036269A06902431343EF
:1005CC00CB602268136843F00103136000202064A1
:1005DC00202384F83D30206384F83E0070BD80F801
:1005EC003C30FFF70DFF82E7294B98428CBF00236C
:1005FC00012399E74FF4967505FB03F3254DA5FBF5
:10060C0003539B090133A6E7A368BBB9451E06EB50
:10061C00460CB5FBFCF50135C5F30B05B5FA85F5B4
:10062C006D0945BBC3B9013806EB4603B0FBF3F3C8
:10063C000133C3F30B0343F40043A3E7451E06EB5E
:10064C00860C0CEB8C0CB5FBFCF50135C5F30B05DE
:10065C00B5FA85F56D09E4E7013806EB860303EB83
:10066C008303B0FBF3F30133C3F30B0343F44043B5
:10067C0088E7042386E7012384E7012070470120E3
:10068C00ACE700BFA08601007F841E0083DE1B4305
:10069C00FF083D00D34D621010B504460E4B187880
:1006AC004FF47A73B3FBF0F30C4A1068B0FBF3F021
:1006BC0000F0BCFC68B90F2C01D901200AE0002223
:1006CC0021464FF0FF3000F079FC054B1C600020F8
:1006DC0000E0012010BD00BF000000200800002039
:1006EC000400002008B5074A136843F01003136098
:1006FC00032000F051FC0F20FFF7CEFFFFF75EFE4A
:10070C00002008BD00200240034A1168034B1B78EF
:10071C000B441360704700BFC40000200000002091
:10072C00014B1868704700BFC400002082B0084B12
:10073C001B68084AA2FB03235B0A00FB03F301932B
:10074C0000BF019B5A1E0192002BF9D102B07047D9
:10075C0008000020D34D6210002800F0F18170B524
:10076C0082B00446036813F0010F2CD0994B5B68E0
:10077C0003F00C03042B1DD0964B5B6803F00C03A9
:10078C00082B12D06368B3F5803F41D0002B55D1B4
:10079C0003F1804303F504331A6822F480321A60A3
:1007AC001A6822F480221A6037E08A4B5B6813F4D3
:1007BC00803FE7D0874B1B6813F4003F03D063687E
:1007CC00002B00F0BF81236813F0020F75D0814B12
:1007DC005B6813F00C0F5FD07E4B5B6803F00C036F
:1007EC00082B54D02369002B00F08A807A4B01220D
:1007FC001A60FFF795FF0546764B1B6813F0020F46
:10080C0075D1FFF78DFF401B0228F5D903209EE11F
:10081C00704A136843F480331360636843B3FFF783
:10082C007FFF05466B4B1B6813F4003FCBD1FFF7E2
:10083C0077FF401B6428F5D9032088E1B3F5A02F7E
:10084C0009D0644B1A6822F480321A601A6822F4B8
:10085C0080221A60E1E703F18043A3F53C331A6868
:10086C0042F480221A601A6842F480321A60D4E78B
:10087C00FFF756FF0546574B1B6813F4003FA2D0F9
:10088C00FFF74EFF401B6428F5D903205FE1514B65
:10089C005B6813F4803FA5D14E4B1B6813F0020F1D
:1008AC0003D02369012B40F04F814A4A136823F08F
:1008BC00F803616943EAC1031360236813F0080F5E
:1008CC0033D0A369002B5CD0434B0122C3F88024A6
:1008DC00FFF726FF05463F4B5B6A13F0020F21D151
:1008EC00FFF71EFF401B0228F5D903202FE1394AE0
:1008FC00136823F0F803616943EAC1031360DCE772
:10090C00354B00221A60FFF70BFF0546314B1B6875
:10091C0013F0020FD1D0FFF703FF401B0228F5D9CB
:10092C00032014E10120FFF701FF236813F0040FEB
:10093C0000F09680274BDB6913F0805F34D1254B98
:10094C00DA6942F08052DA61DB6903F0805301937B
:10095C00019B0125214B1B6813F4807F26D0E36893
:10096C00012B3DD0002B53D103F1804303F504330D
:10097C001A6A22F001021A621A6A22F004021A623E
:10098C0033E0154B0022C3F88024FFF7C9FE05465F
:10099C00104B5B6A13F0020FC7D0FFF7C1FE401B70
:1009AC000228F5D90320D2E00025D3E70B4A1368BF
:1009BC0043F480731360FFF7B3FE0646074B1B68C6
:1009CC0013F4807FCBD1FFF7ABFE801B6428F5D9E5
:1009DC000320BCE0001002400000424200700040C6
:1009EC005F4A136A43F001031362E36833B3FFF702
:1009FC0097FE06465A4B1B6A13F0020F2FD1FFF7D6
:100A0C008FFE801B41F288339842F3D903209EE07D
:100A1C00052B09D0524B1A6A22F001021A621A6A8B
:100A2C0022F004021A62E0E74D4B1A6A42F004020B
:100A3C001A621A6A42F001021A62D6E7FFF770FED8
:100A4C000646474B1B6A13F0020F08D0FFF768FEEF
:100A5C00801B41F288339842F3D9032077E0E5B943
:100A6C00E369002B72D03E4A526802F00C02082A4D
:100A7C0056D0022B17D03B4B00221A66FFF750FEC4
:100A8C000446374B1B6813F0007F47D0FFF748FE36
:100A9C00001B0228F5D9032059E0314AD36923F011
:100AAC008053D361DCE72F4B00221A66FFF738FE28
:100ABC0005462B4B1B6813F0007F06D0FFF730FE6A
:100ACC00401B0228F5D9032041E0236AB3F5803F8F
:100ADC001AD023494B6823F47413226A606A0243C8
:100AEC0013434B601F4B01221A66FFF719FE044695
:100AFC001B4B1B6813F0007F0ED1FFF711FE001B80
:100B0C000228F5D9032022E0154A536823F4003358
:100B1C00A1680B435360DCE7002018E0002016E0CE
:100B2C00012B16D00E4B5B6803F48031226A914284
:100B3C0011D103F47013626A93420ED1002006E0C7
:100B4C0001207047012002E0012000E0002002B0EB
:100B5C0070BD0120FBE70120F9E70120F7E700BF9A
:100B6C0000100240000042420F4B5B6803F00C0285
:100B7C00082A01D00D487047C3F383420C49885CA6
:100B8C0013F4803F0BD0084B5B68C3F34043094A16
:100B9C00D35C064A02FB00F0B0FBF3F07047064B47
:100BAC0003FB00F0704700BF0010024000127A00F7
:100BBC00BC110008CC11000800093D00002800F011
:100BCC00A08070B50D460446524B1B6803F007031A
:100BDC008B420BD24F4A136823F007030B4313606D
:100BEC00136803F007038B4240F08D80236813F0E9
:100BFC00020F17D013F0040F04D0474A536843F484
:100C0C00E0635360236813F0080F04D0424A536822
:100C1C0043F460535360404A536823F0F003A168D7
:100C2C000B435360236813F0010F31D06368012B21
:100C3C0020D0022B25D0384A126812F0020F64D053
:100C4C0035494A6822F0030213434B60FFF768FDF5
:100C5C000646314B5B6803F00C036268B3EB820F02
:100C6C0016D0FFF75DFD801B41F288339842F0D916
:100C7C00032045E0284A126812F4003FE0D101201D
:100C8C003EE0254A126812F0007FD9D1012037E0EE
:100C9C00204B1B6803F00703AB420AD91D4A1368AB
:100CAC0023F007032B431360136803F00703AB42D5
:100CBC002DD1236813F0040F06D0174A536823F480
:100CCC00E063E1680B435360236813F0080F07D00F
:100CDC00114A536823F46053216943EAC1035360FA
:100CEC00FFF742FF0C4B5B68C3F303130B4AD35C57
:100CFC00D8400B4B18600B4B1868FFF7CDFC00204D
:100D0C0070BD012070470120FAE70120F8E70120AF
:100D1C00F6E700BF0020024000100240D01100088E
:100D2C000800002004000020014B1868704700BF29
:100D3C000800002008B5FFF7F7FF044B5B68C3F30E
:100D4C000223034AD35CD84008BD00BF0010024008
:100D5C00E011000808B5FFF7E7FF044B5B68C3F32D
:100D6C00C223034AD35CD84008BD00BF0010024028
:100D7C00E011000870B582B00024A446A6E0804DB6
:100D8C00AA4210D007D97F4DAA420CD005F5803568
:100D9C00AA4208D013E0A5F58015AA4203D005F5A8
:100DAC007025AA4207D18A68002A58D0012A51D04E
:100DBC004361082403E0A5F58015AA42F3D0BEF1E7
:100DCC00FF0F4ED80646BEF1FF0F4CD84FEA8C02EF
:100DDC0033680F25954023EA050304FA02F2134306
:100DEC0033604B6813F0805F6ED0674B9A6942F0AA
:100DFC0001029A619B6903F001030193019B4FEA85
:100E0C009C02951C614B53F825600CF003039D006C
:100E1C000F23AB4026EA03065D4B984229D003F51D
:100E2C008063984200F08E8003F58063984200F056
:100E3C008B8003F58063984219D004231AE0CC68A8
:100E4C00BDE7CC680434BAE7CC680834B7E7CC68A3
:100E5C000C34B4E703610824B1E70024AFE70424A1
:100E6C00ADE7061DAFE7ACF108029200B0E7032333
:100E7C0000E00023AB4033430232444D45F82230AE
:100E8C004B6813F4801F61D0424A936843EA0E0307
:100E9C0093604B6813F4001F5ED03E4AD36843EA5C
:100EAC000E03D3604B6813F4003F5BD0394A536890
:100EBC0043EA0E0353604B6813F4803F58D0354A15
:100ECC00136843EA0E0313600CF1010C0A6832FA42
:100EDC000CF353D0012303FA0CF302EA030E33EAAA
:100EEC000202F1D14A68122A3FF649AF122A3FF6A4
:100EFC0066AF01A555F822F0B30D00084B0E0008A3
:100F0C00550E0008670E0008CB0D0008CB0D00082D
:100F1C00CB0D0008CB0D0008CB0D0008CB0D000845
:100F2C00CB0D0008CB0D0008CB0D0008CB0D000835
:100F3C00CB0D0008CB0D0008CB0D00084F0E0008A0
:100F4C005B0E0008012395E7022393E7114A93688F
:100F5C0023EA0E0393609CE70E4AD36823EA0E0340
:100F6C00D3609FE70B4A536823EA0E035360A2E752
:100F7C00084A136823EA0E031360A5E702B070BD9C
:100F8C00000022100000311000100240000001404F
:100F9C000008014000040140074AD36823F4E063D1
:100FAC001B041B0C000200F4E060034343F0BF631E
:100FBC0043F40033D360704700ED00E000B5194BEB
:100FCC00DB68C3F30223C3F1070CBCF1040F28BF89
:100FDC004FF0040C03F1040EBEF1060F18D9033BBD
:100FEC004FF0FF3E0EFA0CFC21EA0C0199400EFA70
:100FFC0003F322EA0303194300280BDB0901C9B2EE
:10100C0000F1604000F5614080F800135DF804FBCE
:10101C000023E5E700F00F000901C9B2024B195497
:10102C00F4E700BF00ED00E014ED00E00138B0F192
:10103C00807F0BD24FF0E0235861054AF02182F8F3
:10104C0023100020986107221A6170470120704715
:10105C0000ED00E07047000010B50446026813690B
:10106C0023F44053C1680B43136183680269134333
:10107C0042691A430168CB6823F4B05323F00C0384
:10108C001343CB600268536923F4407381690B43AB
:10109C0053610268134B9A4220D0FFF74BFE024675
:1010AC0002EB820202EB820263689B00B2FBF3F25A
:1010BC000D48A0FB02314909642303FB11231B01DA
:1010CC003233A0FB03235B0903F0F00202EB0112A5
:1010DC0003F00F03216813448B6010BDFFF73AFE39
:1010EC000246DDE7003801401F85EB5160B310B5B7
:1010FC00044690F8413013B3242384F8413022681D
:10110C00D36823F40053D3602046FFF7A5FF226871
:10111C00136923F4904313612268536923F02A0363
:10112C0053612268D36843F40053D3600020606499
:10113C00202384F8413084F84230606310BD80F87D
:10114C004030FFF78FF9D7E701207047FFF782FF98
:10115C000B480C490C4A002302E0D458C450043309
:10116C00C4188C42F9D3094A094C002301E01360DE
:10117C000432A242FBD3FFF707F8FFF707F97047D9
:10118C00000000200C000020F01100080C000020D2
:10119C00C8000020FEE70000F8B500BFF8BC08BC92
:1011AC009E467047F8B500BFF8BC08BC9E46704719
:1011BC0002030405060708090A0B0C0D0E0F10108C
:1011CC000102000000000000000000000102030406
:0C11DC00060708090000000001020304DF
:0411E8007501000885
:0411EC004D010008A9
:0C11F000010000001000000000127A0056
:040000050800115985
:00000001FF
