:020000040800F2
:1000000000500020511C000851040008530400084F
:1000100055040008570400085904000800000000B7
:100020000000000000000000000000005B04000869
:100030005D040008000000005F040008610400087F
:10004000991C0008991C0008991C0008991C0008BC
:10005000991C0008991C0008991C0008991C0008AC
:10006000991C0008991C0008991C0008991C00089C
:10007000991C0008991C0008991C0008991C00088C
:10008000991C0008991C0008991C0008991C00087C
:10009000991C0008991C0008991C0008991C00086C
:1000A000991C0008991C0008991C0008991C00085C
:1000B000991C0008991C0008991C0008991C00084C
:1000C000991C0008991C0008991C0008991C00083C
:1000D000991C0008991C0008991C0008991C00082C
:1000E000991C0008991C0008991C000800000000D9
:1000F0000000000000000000000000000000000000
:0C01000000000000000000005FF808F1A3
:10010C000348044B834202D0034B03B1184770479A
:10011C0014000020140000200000000005480649CF
:10012C000B1AD90F01EBA301491002D0034B03B1F9
:10013C001847704714000020140000200000000035
:10014C0010B5064C237843B9FFF7DAFF044B13B113
:10015C000448AFF300800123237010BD140000206D
:10016C00000000009C1C000808B5044B1BB104499E
:10017C000448AFF30080BDE80840CFE70000000062
:10018C00180000209C1C000870B50D4E0D4D761B00
:10019C00B61006D0002455F8043B01349847A6420B
:1001AC00F9D1094E094D01F073FD761BB61006D03E
:1001BC00002455F8043B01349847A642F9D170BD90
:1001CC004C3200084C320008503200084C32000807
:1001DC00830730B548D0541E002A3FD00346CAB21C
:1001EC0001E0013C3AD303F8012B9D07F9D1032C14
:1001FC002DD9CDB245EA05250F2C45EA054536D952
:10020C00A4F1100222F00F0C03F1200EE6444FEA89
:10021C00121C03F1100242E9045542E90255103256
:10022C007245F8D10CF1010214F00C0F03EB021221
:10023C0004F00F0C13D0ACF1040323F003030433CC
:10024C00134442F8045B9342FBD10CF003042CB131
:10025C00CAB21C4403F8012B9C42FBD130BD64464E
:10026C001346002CF4D1F9E703461446BFE71A46AF
:10027C00A446E0E784B00F4B9A6942F020029A61E1
:10028C009A6902F020020192019A9A6942F00402E2
:10029C009A619A6902F004020292029A9A6942F0F7
:1002AC0008029A619B6903F008030393039B04B053
:1002BC00704700BF0010024072B6FEE708B50A484E
:1002CC000A4B03600A4B436000238360C3604FF406
:1002DC008042026143618361C361036200F0E0FA12
:1002EC0000B908BDFFF7E8FF3000002000540040C3
:1002FC00801A060008B50A480A4B03604FF4E13334
:10030C00436000238360C36003610C2242618361FC
:10031C00C36101F067FC00B908BDFFF7CDFF00BF5A
:10032C00840000200038014000B591B02822002143
:10033C0006A8FFF74DFF0023019302930393049348
:10034C000593012206924FF4803307930A920222FE
:10035C000D920E934FF4E0130F9306A800F078FD66
:10036C0080B90F23019302210291002303934FF4D0
:10037C0080620492059301A800F09CFF20B911B093
:10038C005DF804FBFFF798FFFFF796FF00B583B00D
:10039C0000F010FD642000F031FDFFF7C5FFFFF702
:1003AC0069FFFFF78BFFFFF7A5FF01F01DFB002195
:1003BC00084601F04FFA1E4C012221461D4801F05F
:1003CC009DFA1E21002001F045FA012221461A480F
:1003DC0001F094FA01F0DCFA41F2883000F00EFDE5
:1003EC0001F0FAFA4FF47A7000F008FD012501953E
:1003FC00402400948023114A0021084601F0E0F9C2
:10040C0001F0C6FA40F6B83000F0F8FC01F0E4FA5E
:10041C000195009480230A4A0021084601F0D0F986
:10042C0001F0B6FAFA2000F0E9FC01F0D5FADDE7AC
:10043C000C000020B41C0008BC1C0008C41C0008E4
:10044C00C4200008FEE7FEE7FEE7FEE7FEE7704784
:10045C007047704708B500F0BFFC08BD82B00E4B6A
:10046C009A6942F001029A619A6902F001020092C3
:10047C00009ADA6942F08052DA61DB6903F080534A
:10048C000193019B054A536823F0E06343F000732A
:10049C00536002B0704700BF0010024000000140E2
:1004AC0010B586B00023029303930493059302685E
:1004BC00114B9A4201D006B010BD104CA36943F009
:1004CC000803A361A36903F008030093009BC023F6
:1004DC000293122303930323059302A9084800F007
:1004EC00C5FFE36943F40013E361E36903F400130C
:1004FC000193019BDFE700BF005400400010024055
:10050C00000C014010B586B00023029303930493B2
:10051C0005930268174B9A4201D006B010BD03F543
:10052C0058439A6942F480429A619A6902F4804273
:10053C000092009A9A6942F004029A619B6903F056
:10054C0004030193019B4FF4007302930223039362
:10055C0003230593084C02A9204600F087FF4FF4B3
:10056C008063029300230393049302A9204600F0B6
:10057C007DFFD2E7003801400008014003685A694A
:10058C0012F4806F01D1002070476FF480625A61C1
:10059C0000230363202280F83D2080F83E30026C5B
:1005AC0042F00402026480F83C30012070472DE9CF
:1005BC00F04106460C46174698463BE000F018FC06
:1005CC00069BC01A404502D8B8F1000F32D1012D5C
:1005DC0018D033689B6924EA03039BB2B3FA83F304
:1005EC005B099F4226D100233363202286F83D20ED
:1005FC0086F83E30326C42F02002326486F83C3091
:10060C00012027E033685B6924EA03039BB2B3FA49
:10061C0083F35B09E5E733685B6924EA030C1FFA93
:10062C008CFCBCFA8CFC4FEA5C1C674511D1B8F110
:10063C00FF3FC3D1C4F30745012DECD033689B6950
:10064C0024EA030C1FFA8CFCBCFA8CFC4FEA5C1CF1
:10065C00EBE70020BDE8F0812DE9F84305460E4696
:10066C009046994653E01A6842F400721A602B685F
:10067C006FF480625A6100232B63202285F83D20A1
:10068C0085F83E302A6C42F004022A6485F83C302E
:10069C0001204AE000F0ACFBA0EB0900404502D879
:1006AC00B8F1000F33D1012F17D02B689B6926EAC4
:1006BC0003039BB2003B18BF012343B300232B63FE
:1006CC00202285F83D2085F83E302A6C42F020022D
:1006DC002A6485F83C30012027E02B685B6926EA08
:1006EC0003039BB2003B18BF0123E6E72B689C6910
:1006FC0026EA0404A4B2003C18BF0124A4B12B6860
:10070C005A6912F4806FAED1B8F1FF3FC2D1C6F373
:10071C000747012FEAD12B685C6926EA0404A4B2CE
:10072C00003C18BF0124E9E70020BDE8F883000075
:10073C00F0B583B004460D4616461F46C36A082B17
:10074C000DD0012B0BD013F5803F08D0036B122B6F
:10075C000AD10268136843F48073136004E02268C2
:10076C00136843F4807313600097334600224FF0F4
:10077C0001112046FFF71BFF80B92369B3F5804FA9
:10078C0016D1236805F0FE051D613B463246134920
:10079C002046FFF761FFF8B903B0F0BD23681B6872
:1007AC0013F4807F02D04FF4007323640320F3E72B
:1007BC00EB11226803F0060343F0F00313613B4690
:1007CC00324607492046FFF747FF18B92368EDB2B8
:1007DC001D61DAE70120DFE70120DDE702000100FF
:1007EC000800010070B504460D46164623685B6987
:1007FC0013F0800F21D12046FFF7C0FEF8B9B5F1F8
:10080C00FF3FF3D000F0F4FA801BA84201D8002D72
:10081C00ECD123685B6913F0800FE7D100232363CD
:10082C00202284F83D2084F83E30226C42F02002D5
:10083C00226484F83C30012000E0002070BD0120CF
:10084C00FCE770B504460D46164623685B6913F049
:10085C00040F21D12046FFF791FEF8B9B5F1FF3F07
:10086C00F3D000F0C5FA801BA84201D8002DECD1C2
:10087C0023685B6913F0040FE7D100232363202264
:10088C0084F83D2084F83E30226C42F02002226431
:10089C0084F83C30012000E0002070BD0120FCE712
:1008AC00002800F0CC8070B5044690F83D30002B49
:1008BC0077D0242384F83D302268136823F0010399
:1008CC0013602268136843F40043136022681368B2
:1008DC0023F40043136000F0A9FD62685A4B9A425E
:1008EC0064D85A4B98428CBF00230123002B40F054
:1008FC00A8805749A1FB00318B0C25686A6822F04F
:10090C003F0242EA91426A6021680A6A22F03F0281
:10091C0066684D4DAE424FD8013313430B622168CC
:10092C00CA6922F44F4222F0FF026668464B9E428F
:10093C004CD8431E7600B3FBF6F3013340F6FC7043
:10094C00034278D0C3F30B031343CB6121680B68CC
:10095C0023F0C003E269206A024313430B60216851
:10096C008B6823F4034323F0FF032269E0680243FE
:10097C0013438B602168CB6823F0FF036269A06985
:10098C0002431343CB602268136843F001031360E6
:10099C0000202064202384F83D30206384F83E003E
:1009AC0070BD80F83C30FFF77BFD82E7294B984205
:1009BC008CBF0023012399E74FF4967505FB03F3D5
:1009CC00254DA5FB03539B090133A6E7A368BBB9CF
:1009DC00451E06EB460CB5FBFCF50135C5F30B05C6
:1009EC00B5FA85F56D0945BBC3B9013806EB46036D
:1009FC00B0FBF3F30133C3F30B0343F40043A3E75E
:100A0C00451E06EB860C0CEB8C0CB5FBFCF501358E
:100A1C00C5F30B05B5FA85F56D09E4E7013806EB6E
:100A2C00860303EB8303B0FBF3F30133C3F30B0334
:100A3C0043F4404388E7042386E7012384E701203D
:100A4C0070470120ACE700BFA08601007F841E0028
:100A5C0083DE1B43FF083D00D34D62102DE9F043AC
:100A6C0085B004460F46914698460C9E00F0C0F99E
:100A7C00054694F83D00C0B2202804D00227384621
:100A8C0005B0BDE8F0830095192301224F4920469B
:100A9C00FFF78DFD002840F0928094F83C30012B3C
:100AAC0000F08F80012384F83C3023681A6812F020
:100ABC00010F03D11A6842F001021A602268136810
:100ACC0023F400631360212384F83D30102384F851
:100ADC003E3000232364C4F82490A4F82A80638D4C
:100AEC0023853B4BE3622B46324639462046FFF7C3
:100AFC001FFE0746002866D10023039323685A691A
:100B0C0003929B690393039B11E0236C042B01D08C
:100B1C000127B4E72268136843F400731360F7E706
:100B2C002A4631462046FFF78CFE00282ED1238D15
:100B3C00002B36D02A4631462046FFF753FE0028BC
:100B4C00E3D1626A236812781A61606A431C63629B
:100B5C00618D89B2013989B26185238D013B9BB2CC
:100B6C0023852268516911F0040FD9D0002BD7D0FE
:100B7C0043781361636A01336362638D9BB2013BFB
:100B8C009BB26385238D013B2385C9E7236C042B22
:100B9C0001D0012773E72268136843F400731360D4
:100BAC00F7E72268136843F400731360202384F87A
:100BBC003D30002384F83E3084F83C305FE7022758
:100BCC005DE702275BE7012759E700BF0200100031
:100BDC000000FFFF2DE9F04385B00446884691469E
:100BEC001D4600F005F994F83D30DBB2202B03D004
:100BFC00022005B0BDE8F0830646009019230122BF
:100C0C0057492046FFF7D3FC002840F0A08094F809
:100C1C003C30012B00F09D80012384F83C3023688C
:100C2C001A6812F0010F03D11A6842F001021A601F
:100C3C002268136823F400631360242384F83D3086
:100C4C0000272764474BE36240E023681B6813F4DA
:100C5C00807F02D04FF4007323640320C9E7A023E4
:100C6C0084F83D3022685369C3F340035269C2F3E0
:100C7C00802294F83DC05FFA8CFCBCF1A00F09D027
:100C8C0043B93AB900F0B4F8801BA842E7D8002D5C
:100C9C00E8D1E4E7202384F83D3023685A6912F048
:100CAC00020F31D11A6842F400721A6023686FF493
:100CBC0080625A6100961923012229492046FFF7C8
:100CCC0076FC002849D101374F4538D22268136889
:100CDC0043F48073136000962B4600224FF00111F1
:100CEC002046FFF764FC0028AFD1236808F0FE0211
:100CFC001A6100F07DF8064622685369C3F340037D
:100D0C005269C2F38022B4E71A6842F400721A6086
:100D1C000023039323685A6903929B690393039BF3
:100D2C000096192301220E492046FFF740FC90B98A
:100D3C00202384F83D30002384F83C3059E72023ED
:100D4C0084F83D30002384F83C30012051E7022028
:100D5C004FE702204DE701204BE7012049E700BF98
:100D6C00020010000000FFFF10B504460E4B18786F
:100D7C004FF47A73B3FBF0F30C4A1068B0FBF3F04A
:100D8C0000F0D0FC68B90F2C01D901200AE0002238
:100D9C0021464FF0FF3000F08DFC054B1C6000200D
:100DAC0000E0012010BD00BF000000200800002062
:100DBC000400002008B5074A136843F010031360C1
:100DCC00032000F065FC0F20FFF7CEFFFFF746FB7A
:100DDC00002008BD00200240034A1168034B1B7819
:100DEC000B441360704700BFCC00002000000020B3
:100DFC00014B1868704700BFCC00002038B5044682
:100E0C00FFF7F6FF0546B4F1FF3F02D0044B1B7809
:100E1C001C44FFF7EDFF401BA042FAD338BD00BFC6
:100E2C000000002082B0084B1B68084AA2FB032379
:100E3C005B0A00FB03F3019300BF019B5A1E019256
:100E4C00002BF9D102B0704708000020D34D62107E
:100E5C00002800F0F18170B582B00446036813F0ED
:100E6C00010F2CD0994B5B6803F00C03042B1DD0A5
:100E7C00964B5B6803F00C03082B12D06368B3F538
:100E8C00803F41D0002B55D103F1804303F504334F
:100E9C001A6822F480321A601A6822F480221A60CE
:100EAC0037E08A4B5B6813F4803FE7D0874B1B68B5
:100EBC0013F4003F03D06368002B00F0BF8123685C
:100ECC0013F0020F75D0814B5B6813F00C0F5FD0E1
:100EDC007E4B5B6803F00C03082B54D02369002B6A
:100EEC0000F08A807A4B01221A60FFF781FF0546D9
:100EFC00764B1B6813F0020F75D1FFF779FF401B7F
:100F0C000228F5D903209EE1704A136843F480331C
:100F1C001360636843B3FFF76BFF05466B4B1B68AD
:100F2C0013F4003FCBD1FFF763FF401B6428F5D9C6
:100F3C00032088E1B3F5A02F09D0644B1A6822F482
:100F4C0080321A601A6822F480221A60E1E703F1F9
:100F5C008043A3F53C331A6842F480221A601A6865
:100F6C0042F480321A60D4E7FFF742FF0546574B34
:100F7C001B6813F4003FA2D0FFF73AFF401B642814
:100F8C00F5D903205FE1514B5B6813F4803FA5D189
:100F9C004E4B1B6813F0020F03D02369012B40F05A
:100FAC004F814A4A136823F0F803616943EAC1038D
:100FBC001360236813F0080F33D0A369002B5CD0A7
:100FCC00434B0122C3F88024FFF712FF05463F4B29
:100FDC005B6A13F0020F21D1FFF70AFF401B0228B6
:100FEC00F5D903202FE1394A136823F0F80361691E
:100FFC0043EAC1031360DCE7354B00221A60FFF7AC
:10100C00F7FE0546314B1B6813F0020FD1D0FFF7EA
:10101C00EFFE401B0228F5D9032014E10120FFF755
:10102C0001FF236813F0040F00F09680274BDB6957
:10103C0013F0805F34D1254BDA6942F08052DA61CB
:10104C00DB6903F080530193019B0125214B1B6845
:10105C0013F4807F26D0E368012B3DD0002B53D1B5
:10106C0003F1804303F504331A6A22F001021A6279
:10107C001A6A22F004021A6233E0154B0022C3F8FC
:10108C008024FFF7B5FE0546104B5B6A13F0020F88
:10109C00C7D0FFF7ADFE401B0228F5D90320D2E0E4
:1010AC000025D3E70B4A136843F480731360FFF7F2
:1010BC009FFE0646074B1B6813F4807FCBD1FFF7CE
:1010CC0097FE801B6428F5D90320BCE00010024079
:1010DC0000004242007000405F4A136A43F0010373
:1010EC001362E36833B3FFF783FE06465A4B1B6A61
:1010FC0013F0020F2FD1FFF77BFE801B41F28833D8
:10110C009842F3D903209EE0052B09D0524B1A6A62
:10111C0022F001021A621A6A22F004021A62E0E753
:10112C004D4B1A6A42F004021A621A6A42F001022A
:10113C001A62D6E7FFF75CFE0646474B1B6A13F0B4
:10114C00020F08D0FFF754FE801B41F288339842FF
:10115C00F3D9032077E0E5B9E369002B72D03E4A5E
:10116C00526802F00C02082A56D0022B17D03B4BC7
:10117C0000221A66FFF73CFE0446374B1B6813F03F
:10118C00007F47D0FFF734FE001B0228F5D903205F
:10119C0059E0314AD36923F08053D361DCE72F4BFC
:1011AC0000221A66FFF724FE05462B4B1B6813F032
:1011BC00007F06D0FFF71CFE401B0228F5D9032048
:1011CC0041E0236AB3F5803F1AD023494B6823F4DE
:1011DC007413226A606A024313434B601F4B012253
:1011EC001A66FFF705FE04461B4B1B6813F0007FC5
:1011FC000ED1FFF7FDFD001B0228F5D9032022E0DC
:10120C00154A536823F40033A1680B435360DCE7A1
:10121C00002018E0002016E0012B16D00E4B5B6866
:10122C0003F48031226A914211D103F47013626A83
:10123C0093420ED1002006E001207047012002E00D
:10124C00012000E0002002B070BD0120FBE701206E
:10125C00F9E70120F7E700BF00100240000042420E
:10126C000F4B5B6803F00C02082A01D00D48704745
:10127C00C3F383420C49885C13F4803F0BD0084BBA
:10128C005B68C3F34043094AD35C064A02FB00F097
:10129C00B0FBF3F07047064B03FB00F0704700BF48
:1012AC000010024000127A00C4240008D424000864
:1012BC0000093D00002800F0A08070B50D460446E2
:1012CC00524B1B6803F007038B420BD24F4A136837
:1012DC0023F007030B431360136803F007038B42DF
:1012EC0040F08D80236813F0020F17D013F0040F19
:1012FC0004D0474A536843F4E0635360236813F007
:10130C00080F04D0424A536843F460535360404A78
:10131C00536823F0F003A1680B435360236813F068
:10132C00010F31D06368012B20D0022B25D0384A15
:10133C00126812F0020F64D035494A6822F0030299
:10134C0013434B60FFF754FD0646314B5B6803F0CB
:10135C000C036268B3EB820F16D0FFF749FD801BBC
:10136C0041F288339842F0D9032045E0284A1268AC
:10137C0012F4003FE0D101203EE0254A126812F041
:10138C00007FD9D1012037E0204B1B6803F0070305
:10139C00AB420AD91D4A136823F007032B43136091
:1013AC00136803F00703AB422DD1236813F0040F2D
:1013BC0006D0174A536823F4E063E1680B4353608B
:1013CC00236813F0080F07D0114A536823F46053B5
:1013DC00216943EAC1035360FFF742FF0C4B5B6882
:1013EC00C3F303130B4AD35CD8400B4B18600B4B65
:1013FC001868FFF7B9FC002070BD01207047012070
:10140C00FAE70120F8E70120F6E700BF00200240D0
:10141C0000100240D824000808000020040000201E
:10142C00014B1868704700BF0800002008B5FFF793
:10143C00F7FF044B5B68C3F30223034AD35CD84029
:10144C0008BD00BF00100240E824000808B5FFF7F3
:10145C00E7FF044B5B68C3F3C223034AD35CD84059
:10146C0008BD00BF00100240E824000870B582B02F
:10147C000024A446A6E0804DAA4210D007D97F4D87
:10148C00AA420CD005F58035AA4208D013E0A5F588
:10149C008015AA4203D005F57025AA4207D18A68A7
:1014AC00002A58D0012A51D04361082403E0A5F545
:1014BC008015AA42F3D0BEF1FF0F4ED80646BEF1FE
:1014CC00FF0F4CD84FEA8C0233680F25954023EA66
:1014DC00050304FA02F2134333604B6813F0805F88
:1014EC006ED0674B9A6942F001029A619B6903F0D6
:1014FC0001030193019B4FEA9C02951C614B53F82D
:10150C0025600CF003039D000F23AB4026EA030675
:10151C005D4B984229D003F58063984200F08E8091
:10152C0003F58063984200F08B8003F5806398424A
:10153C0019D004231AE0CC68BDE7CC680434BAE7B0
:10154C00CC680834B7E7CC680C34B4E703610824E2
:10155C00B1E70024AFE70424ADE7061DAFE7ACF11B
:10156C0008029200B0E7032300E00023AB403343B2
:10157C000232444D45F822304B6813F4801F61D081
:10158C00424A936843EA0E0393604B6813F4001FBE
:10159C005ED03E4AD36843EA0E03D3604B6813F423
:1015AC00003F5BD0394A536843EA0E0353604B68E3
:1015BC0013F4803F58D0354A136843EA0E03136086
:1015CC000CF1010C0A6832FA0CF353D0012303FA24
:1015DC000CF302EA030E33EA0202F1D14A68122A32
:1015EC003FF649AF122A3FF666AF01A555F822F037
:1015FC00AB140008431500084D1500085F150008D2
:10160C00C3140008C3140008C3140008C314000852
:10161C00C3140008C3140008C3140008C314000842
:10162C00C3140008C3140008C3140008C314000832
:10163C00C31400084715000853150008012395E74B
:10164C00022393E7114A936823EA0E0393609CE705
:10165C000E4AD36823EA0E03D3609FE70B4A536804
:10166C0023EA0E035360A2E7084A136823EA0E0329
:10167C001360A5E702B070BD00002210000031100D
:10168C00001002400000014000080140000401402D
:10169C00074AD36823F4E0631B041B0C000200F41C
:1016AC00E060034343F0BF6343F40033D3607047FF
:1016BC0000ED00E000B5194BDB68C3F30223C3F166
:1016CC00070CBCF1040F28BF4FF0040C03F1040EFF
:1016DC00BEF1060F18D9033B4FF0FF3E0EFA0CFC7F
:1016EC0021EA0C0199400EFA03F322EA0303194391
:1016FC0000280BDB0901C9B200F1604000F5614024
:10170C0080F800135DF804FB0023E5E700F00F0000
:10171C000901C9B2024B1954F4E700BF00ED00E017
:10172C0014ED00E00138B0F1807F0BD24FF0E023D4
:10173C005861054AF02182F8231000209861072295
:10174C001A6170470120704700ED00E070470000FF
:10175C0008B530B900214FF480620348FEF738FD1C
:10176C0008BDFF21F7E700BFD80000207F2815D85F
:10177C003F2913D8104B1B7913B1B2FA82F25209DC
:10178C00012A0CD0CB0800EBC31001F00701012398
:10179C008B400A4A115C21EA030111547047CB08B3
:1017AC0000EBC31001F0070101238B40034A115CCD
:1017BC0019431154704700BFD0000020D8000020FE
:1017CC002DE9F04F83B08346884692461E46BDF9FC
:1017DC0030300193BDF83430009316F1070904D46E
:1017EC004FEAE90900273D462CE009F10709F7E724
:1017FC0009FB07F11A46002B12DB42F3CF020A4415
:10180C001AF8025015F0800F0CD1631C1BB2B342B6
:10181C0012DA9CB213F0070FEAD06D00EDB2F1E7CB
:10182C00DA1DEAE704EB0B009DF800201FFA88F1A3
:10183C0080B2FFF79BFFE8E701373FB208F10108E0
:10184C000FFA88F8019B9F4201DA0023DFE703B00F
:10185C00BDE8F08F014B188059807047D0000020F4
:10186C002DE9F8439046244B1B880A7813447F2BB0
:10187C003EDC81460D46204B5B884A7813443F2B57
:10188C0038DC002620E01C4B188859883144204451
:10189C00B8FA88F2520989B280B2FFF767FF0134B7
:1018AC002B78A3420FD907FA04F313F4004FEAD0B4
:1018BC00114B1888598831442044424689B280B271
:1018CC00FFF754FFEBE701366A78B24208D9696832
:1018DC00A9F1200302FB036331F813700024DFE746
:1018EC002B78054A11880B4413804846BDE8F883D1
:1018FC000020FBE70020F9E7D000002070B504467B
:10190C000E46154600E00134207838B12A4631469F
:10191C00FFF7A6FF034620788342F4D070BD000089
:10192C0000B5C3B08DF808104FF0000C09E00CF1B5
:10193C00010E12F80C100DF1080C0CF80E105FFAD9
:10194C008EFC1FFA8CFE9E45F1D301330A220092C5
:10195C009BB202AA01460348FFF780F843B05DF83A
:10196C0004FB00BF3000002000B585B08DF80C10D2
:10197C008DF80D200A230093022303AA0146034885
:10198C00FFF76CF805B05DF804FB00BF30000020D9
:10199C0010B500241AE0A4F15002D2B20021782034
:1019AC00FFF7E2FF002211467820FFF7DDFF10223F
:1019BC0000217820FFF7D8FF8023064A02EBC412DF
:1019CC0040217820FFF7ACFF0134E4B2072CE2D9B8
:1019DC0010BD00BFD800002008B50020FFF7B8FEEE
:1019EC00FFF7D6FF08BD000008B544F620630122BE
:1019FC0078215548FFF7EEF8002840F0A38040F618
:101A0C00C41300E0013B002BFCD1AE220021782056
:101A1C00FFF7AAFF202200217820FFF7A5FF102254
:101A2C0000217820FFF7A0FFB02200217820FFF7DB
:101A3C009BFFC82200217820FFF796FF0022114659
:101A4C007820FFF791FF102200217820FFF78CFF00
:101A5C00402200217820FFF787FF81220021782087
:101A6C00FFF782FFFF2200217820FFF77DFFA122E4
:101A7C0000217820FFF778FFA62200217820FFF7BD
:101A8C0073FFA82200217820FFF76EFF3F22002170
:101A9C007820FFF769FFA42200217820FFF764FF6C
:101AAC00D32200217820FFF75FFF00221146782017
:101ABC00FFF75AFFD52200217820FFF755FFF022BF
:101ACC0000217820FFF750FFD92200217820FFF762
:101ADC004BFF222200217820FFF746FFDA2200215B
:101AEC007820FFF741FF122200217820FFF73CFFFE
:101AFC00DB2200217820FFF737FF202200217820FD
:101B0C00FFF732FF8D2200217820FFF72DFF1422E2
:101B1C0000217820FFF728FFAF2200217820FFF763
:101B2C0023FF2E2200217820FFF71EFF0020FFF755
:101B3C000FFEFFF72DFF054B00221A805A80012063
:101B4C00587108BD0020FCE730000020D0000020B8
:101B5C0010B504460268136923F44053C1680B4363
:101B6C00136183680269134342691A430168CB68A5
:101B7C0023F4B05323F00C031343CB600268536976
:101B8C0023F4407381690B4353610268134B9A42EF
:101B9C0020D0FFF74BFC024602EB820202EB8202E2
:101BAC0063689B00B2FBF3F20D48A0FB02314909BC
:101BBC00642303FB11231B013233A0FB03235B09BA
:101BCC0003F0F00202EB011203F00F03216813443F
:101BDC008B6010BDFFF73AFC0246DDE70038014090
:101BEC001F85EB5160B310B5044690F8413013B328
:101BFC00242384F841302268D36823F40053D36043
:101C0C002046FFF7A5FF2268136923F49043136164
:101C1C002268536923F02A0353612268D36843F482
:101C2C000053D36000206064202384F8413084F892
:101C3C004230606310BD80F84030FEF763FCD7E79C
:101C4C0001207047FFF782FD0B480C490C4A00231A
:101C5C0002E0D458C4500433C4188C42F9D3094A56
:101C6C00094C002301E013600432A242FBD3FEF7BF
:101C7C008BFAFEF78BFB704700000020140000204D
:101C8C005432000814000020D8040020FEE70000A5
:101C9C00F8B500BFF8BC08BC9E467047F8B500BF4D
:081CAC00F8BC08BC9E4670471D
:101CB40048454C4C4F0000004F636920426C75004E
:101CC4000000000000000000000000000000000010
:101CD4000000000000000000000000000000000000
:101CE40000000000000000000000000000000000F0
:101CF40000000000000000000000000000000000E0
:101D040000000000000000000000000000000000CF
:101D140000000000000000000000000000000000BF
:101D240000000000000000000000000000000000AF
:101D3400000000000000000000000000000000009F
:101D4400000000000001F80001F0000000000000A5
:101D540000000000000FF0000FF800000000000079
:101D640000000000003FF0001FF800000000000029
:101D74000000000001FFF0003FFC00000000000034
:101D84000000000007FFF0007FFC000000000000DE
:101D9400000000003FFFE000FFFC00000000000026
:101DA40000000003FFFFE000FFFE0200000000004F
:101DB40000000007FFFFE000FFFE0300000000003A
:101DC40000000007FFFFE000FFFE038000000000AA
:101DD40000000003FFFFC000FFFE03C0000000007E
:101DE40000000001FFFFC000FFFE01E00000000052
:101DF40000000000FFFFC000FFFE01E00000000043
:101E0400000000007FFFC000FFFE01F000000000A2
:101E1400000000007FFFC0007FFE01F8000000000A
:101E2400000000003FFFC0007FFE00F8000000003B
:101E3400000000001FFFC0003FFE00FC0000000087
:101E44000000000007FFC0003FFC00FE000000008F
:101E54000000000003FFC0001FF800FE00000000A7
:101E64000000000000FFC0000FF000FE00000000B2
:101E740000000000007FC000000000FF0000000020
:101E840000000000003FC000000000FF0000000050
:101E940000000000001FC000000000FF0000000060
:101EA40000000000000FC000000000FF0000000060
:101EB400000000000007E000000000FF0000000038
:101EC400000000000003E000000000FF000000002C
:101ED400000000000003E000000000FF000000001C
:101EE400000000000001F000000001FF00000000FD
:101EF400000000000000F000000001FF00000000EE
:101F0400000000000000F800000001FF00000000D5
:101F14000000000000007C00000003FF000000003F
:101F24000000000000003E00000003FF000000006D
:101F34000000000000001F00000007FF0000000078
:101F44000000000000001FC000000FFF8000000020
:101F54000000000000000FF000001FFF80000000E0
:101F640000000000000007FF8000FFFF8000000069
:101F740000000000000003FFFE1FFFFF80000000C0
:101F840000000000000001FFFFFFFFFF80000000D1
:101F940000000000000000FFFFFFFFFF80000000C2
:101FA400000000000000007FFFFFFFFF8000000032
:101FB400000000000000003FFFFFFFFF8000000062
:101FC400000000000000000FFFFFFFFF8000000082
:101FD4000000000000000007FFFFFFFF800000007A
:101FE4000000000000000001FFFFFFFF8000000070
:101FF40000000000000000007FFFFFFF0000000061
:1020040000000000000000001FFFFFFF00000000B0
:10201400000000000000000003FFFFFF00000000BC
:102024000000000000000000000003FF00000000AA
:1020340000000000000000000000003F000000005D
:10204400000000000000000000000002000000008A
:10205400000000000000000000000000000000007C
:10206400000000000000000000000000000000006C
:10207400000000000000000000000000000000005C
:10208400000000000000000000000000000000004C
:10209400000000000000000000000000000000003C
:1020A400000000000000000000000000000000002C
:1020B400000000000000000000000000000000001C
:1020C400000000000000000000000000000000000C
:1020D40000000000000000000000000000000000FC
:1020E40000000000000000000000000000000000EC
:1020F40000000000000000000000000000000000DC
:1021040000000000000000000000000000000000CB
:1021140000000000000000000000000000000000BB
:1021240000000000000000000000000000000000AB
:10213400000000100000000000000000000000008B
:102144000000001800000000000000000000000073
:102154000000001C0000000002000000000000005D
:102164000000001E000000000380000000000000CA
:102174000000003E0000000007C000000000000056
:102184000000003C0000000007F000000000000018
:102194000000003C0000000001FC00000000000002
:1021A4000000003E0000000000FE000000000000EF
:1021B4000000007F80000000003F8000000000005D
:1021C4000000007FE0000000000FE00000000000BD
:1021D4000000007BF00000000007F0000000000099
:1021E40000000078FC0000000001F0000000000086
:1021F400000000787F000000000070000000000074
:10220400000000301F8000000000200000000000DB
:102214000000001007E000000000000000000000C3
:102224000000000003F800000000000000000000AF
:102234000000000000FE000000000000000000009C
:1022440000000000003F000000000000000000004B
:1022540000000000000FC0000000000000000000AB
:10226400000000000007F000000000000000000073
:10227400000000000001F800000000000000000061
:102284000000000000007E000000000000000000CC
:102294000000000000003F8000000000000000007B
:1022A4000000000000000FE000000000000000003B
:1022B40000000000000003F0000000000000000027
:1022C40000000000000001FC00000000000000000D
:1022D400000000000000007F00000000000000007B
:1022E400000000000000001F80000000000000004B
:1022F4000000000000000007E000000000000000F3
:102304000000000000000003F800000000000000CE
:102314000000000000000000FE00000000000000BB
:1023240000000000000000003F000000000000006A
:1023340000000000000000001FC0000000000000BA
:10234400000000000000000007F000000000000092
:10235400000000000000000001F800000000000080
:102364000000000000000000007E000000000000EB
:102374000000000000000000003F8000000000009A
:102384000000000000000000000FE000000000005A
:1023940000000000000000000003F00080000000C6
:1023A40000000000000000000001FC0180000000AB
:1023B400000000000000000000007F01C0000000D9
:1023C400000000000000000000001F81E000000089
:1023D4000000000000000000000007E1E000000031
:1023E4000000000000000000000003F9E00000000D
:1023F4000000000000000000000000FFE0000000FA
:1024040000000000000000000000003FC0000000C9
:1024140000000000000000000000001FC0000000D9
:10242400000000000000000000000007C0000000E1
:10243400000000000000000000000007C0000000D1
:10244400000000000000000000000007C0000000C1
:1024540000000000000000000000000380000000F5
:1024640000000000000000000000000180000000E7
:1024740000000000000000000000000180000000D7
:102484000000000000000000000000000000000048
:102494000000000000000000000000000000000038
:1024A4000000000000000000000000000000000028
:1024B4000000000000000000000000000000000018
:1024C40002030405060708090A0B0C0D0E0F101071
:1024D40001020000000000000000000001020304EB
:1024E40006070809000000000102030400000000C0
:1024F40000000000000000000000000000000000D8
:1025040000000000000000000000000000000000C7
:102514000000000C000C000C000C000C000C000C63
:10252400000C000C000C000C0000000C000C00005F
:10253400000000000000001B001B001B001B001B10
:102544000000000000000000000000000000000087
:1025540000000000000000000000801980198019AC
:102564008019C07FC07F80190033C07FC07F0033D3
:102574000033003300330000000000000000001EA0
:10258400003F807580650074003C001E00078005D4
:10259400806580658075003F001E00040004000013
:1025A4000000007000D840D8C0D880D9007300065D
:1025B400000C801BC036C066C046C0068003000005
:1025C400000000000000001E003F00330033003311
:1025D400001E000CC03CC066806380618063C03E06
:1025E400801C0000000000000000000C000C000C27
:1025F400000C000C000000000000000000000000BF
:102604000000000000000000000000008000000145
:102614000003000600060004000C000C000C000C73
:10262400000C000C000400060006000300018000FA
:10263400002000100018000C000C00040006000626
:1026440000060006000600060004000C000C00183A
:10265400001000200000000C002D003F001E00337D
:102664000000000000000000000000000000000066
:102674000000000000000000000000000000000C4A
:10268400000C000C000CC0FFC0FF000C000C000C80
:10269400000C00000000000000000000000000002A
:1026A4000000000000000000000000000000000026
:1026B400000000000000000C000C000400040008EE
:1026C4000000000000000000000000000000000006
:1026D4000000001E001E00000000000000000000BA
:1026E40000000000000000000000000000000000E6
:1026F4000000000000000000000000000000000CCA
:10270400000C0000000000000000000300030003B0
:102714000006000600060006000C000C000C000C6D
:102724000018001800180000000000000000001E3F
:10273400003F0033806180618061806D806D8061C5
:10274400806180610033003F001E00000000000033
:1027540000000006000E001E0036002600060006DB
:10276400000600060006000600060006000600003B
:10277400000000000000001E003F80738061806143
:10278400800100030006000C001800300060807F08
:10279400807F0000000000000000001C003E006379
:1027A40000630003000E000E0003800180018061BD
:1027B4008073003F001E00000000000000000006BF
:1027C400000E000E001E001E0016003600360066C5
:1027D400807F807F000600060006000000000000E5
:1027E4000000007F007F006000600060006E007FDA
:1027F40080638001800180618073003F001E0000BF
:10280400000000000000001E003F80338061006073
:10281400006E007F80738061806180618033003F3F
:10282400001E0000000000000000807F807F800107
:102834000003000300060006000C000C000C000856
:102844000018001800180000000000000000001E1E
:10285400003F8063806180610021001E003F806131
:10286400806180618061003F001E00000000000064
:102874000000001E003F00738061806180618073EE
:10288400803F801D800180610073003F001E0000B6
:102894000000000000000000000000000000000C28
:1028A400000C000000000000000000000000000C0C
:1028B400000C000000000000000000000000000008
:1028C40000000000000C000C0000000000000000EC
:1028D4000000000C000C00040004000800000000CC
:1028E4000000000080008003000E00380060003803
:1028F400000E8003800000000000000000000000C3
:1029040000000000000000000000807F807F0000C5
:102914000000807F807F00000000000000000000B5
:1029240000000000000000000000000000400070F3
:10293400001C000780010007001C0070004000001C
:1029440000000000000000000000001F803FC07174
:10295400C060C000C00180030007000E000C000C22
:102964000000000C000C0000000000000000001E2D
:10297400003F803180718063806F806D806D806FD7
:10298400806700600032003E001C00000000000070
:102994000000000E000E001B001B001B001B8031FA
:1029A4008031803F803F8031C060C060C0600000E3
:1029B400000000000000007C007E006300630063F0
:1029C4000063007E007E0063806180618063007F1D
:1029D400007E0000000000000000001E003F803167
:1029E40080610060006000600060006000608061E1
:1029F4008031003F001E0000000000000000007C49
:102A0400007F006380638061806180618061806198
:102A1400806100630063007E007C00000000000011
:102A24000000807F807F0060006000600060007FA5
:102A3400007F0060006000600060807F807F000095
:102A4400000000000000807F807F00600060006064
:102A54000060007F007F0060006000600060006034
:102A640000600000000000000000001E003F8031F4
:102A740080610060006000608063806380618061C9
:102A84008031803F001E00000000000000008061D3
:102A940080618061806180618061807F807F8061EE
:102AA40080618061806180618061000000000000BD
:102AB4000000003F003F000C000C000C000C000C58
:102AC400000C000C000C000C000C003F003F000048
:102AD400000000000000800180018001800180016D
:102AE4008001800180018001806180618073003FEA
:102AF400001E0000000000000000C0608061006350
:102B040000660066006C0078007C00660066006366
:102B140080618061C060000000000000000000606F
:102B240000600060006000600060006000600060A1
:102B3400006000600060807F807F00000000000073
:102B44000000C071C071C07BC07AC06AC06AC06E28
:102B5400C064C060C060C060C060C060C06000008D
:102B64000000000000008071807180798079807994
:102B7400806D806D806D806580678067806780630D
:102B840080630000000000000000001E003F0033CE
:102B94008061806180618061806180618061806129
:102BA4000033003F001E0000000000000000007E13
:102BB400007F80638061806180618063007F007E2C
:102BC4000060006000600060006000000000000021
:102BD4000000001E003F00338061806180618061DD
:102BE40080618061806580670033803F401E000003
:102BF400000000000000007E007F8063806180612F
:102C04008063007F007E00660063006380618061F2
:102C1400C0600000000000000000000E001F8031B2
:102C2400803100300038001E00078003806180611D
:102C34008031003F001E0000000000000000C0FFC3
:102C4400C0FF000C000C000C000C000C000C000C6D
:102C5400000C000C000C000C000C00000000000034
:102C64000000806180618061806180618061806139
:102C740080618061806180618073003F001E00007C
:102C8400000000000000C060C060C060803180317E
:102C94008031001B001B001B001B000E000E000EE9
:102CA40000040000000000000000C0C0C0C0C0C09C
:102CB400C0C0C0C0C0CC804C804C805E805280526A
:102CC4008073806180610000000000000000C0C0CB
:102CD400806080610033003B001E000C000C001E6D
:102CE400001F003B80718061C0C000000000000034
:102CF4000000C0C08061806100330033001E001EEC
:102D0400000C000C000C000C000C000C000C00006B
:102D1400000000000000803F803F800100030003AA
:102D24000006000C000C0018001800300060807FC2
:102D3400807F000000000000000F000F000C000C5A
:102D4400000C000C000C000C000C000C000C000C1F
:102D5400000C000C000C000C000F000F0000001809
:102D640000180018000C000C000C000C00060006F3
:102D7400000600060003000300030000000000003A
:102D8400001E001E000600060006000600060006DF
:102D940000060006000600060006000600060006FF
:102DA400001E001E0000000C000C001E0012003368
:102DB400003380618061000000000000000000001A
:102DC40000000000000000000000000000000000FF
:102DD40000000000000000000000000000000000EF
:102DE4000000000000000000E0FF000000000038C8
:102DF4000018000C000000000000000000000000AB
:102E040000000000000000000000000000000000BE
:102E140000000000000000000000001F803F8061EF
:102E24008001801F803F80618063807FC038000004
:102E34000000000000000060006000600060006EA0
:102E4400007F807380618061806180618073007F16
:102E5400006E000000000000000000000000000000
:102E64000000001E003F807380610060006080618C
:102E74008073003F001E000000000000000080017D
:102E8400800180018001801D803F807380618061AA
:102E9400806180618073803F801D0000000000001D
:102EA40000000000000000000000001E003F00734E
:102EB4008061807F807F00608071003F001E000081
:102EC400000000000000C007C00F000C000C807F51
:102ED400807F000C000C000C000C000C000C000C9B
:102EE400000C0000000000000000000000000000D2
:102EF400801D803F80738061806180618061807308
:102F0400803F801D80018063007F003E00000060E0
:102F1400006000600060006F807F8071806180616C
:102F24008061806180618061806100000000000038
:102F340000000006000600000000003E003E0006FF
:102F44000006000600060006000600060006000053
:102F5400000000000006000600000000003E003EE5
:102F6400000600060006000600060006000600062D
:102F740000060046007E003C000000600060006027
:102F84000060806100630066006C007C0076006372
:102F940000638061C0600000000000000000003E8B
:102FA400003E0006000600060006000600060006B5
:102FB40000060006000600060006000000000000EF
:102FC4000000000000000000000080DDC0FFC0CE53
:102FD400C0CCC0CCC0CCC0CCC0CCC0CCC0CC000019
:102FE4000000000000000000000000000000006F6E
:102FF400807F807180618061806180618061806197
:1030040080610000000000000000000000000000DB
:103014000000001E003F80738061806180618061D8
:103024008073003F001E000000000000000000004C
:1030340000000000006E007F807380618061806109
:1030440080618073007F006E00600060006000603B
:103054000000000000000000801D803F807380613C
:103064008061806180618073803F801D8001800168
:1030740080018001000000000000000000000067E3
:10308400803F003900300030003000300030003024
:1030940000300000000000000000000000000000FC
:1030A4000000001E803F80610060007F803F80013F
:1030B4008061007F001E000000000000000000008E
:1030C400000800180018007F007F0018001800187E
:1030D400001800180018801F800F00000000000076
:1030E4000000000000000000000080618061806139
:1030F40080618061806180618063807F803D0000A9
:103104000000000000000000000000000000C0609B
:10311400803180318031001B001B001B000E000E2B
:103124000006000000000000000000000000000095
:10313400000080DD80DD80DD0055005500550077FE
:1031440000770022002200000000000000000000C0
:10315400000000000000806100330033001E000CFA
:10316400000C001E003300338061000000000000EA
:1031740000000000000000008061806180310033A5
:103184000033001B001B001B000E000E000E001C71
:10319400007C007000000000000000000000C07F00
:1031A400C07F800100030006000C00180030C07FBF
:1031B400C07F0000000000008003800700060006B6
:1031C400000600060006000E001C001C000E00068F
:1031D40000060006000600068007800300060006BD
:1031E40000060006000600060006000600060006AB
:1031F400000600060006000600060006000600069B
:103204000038003C000C000C000C000C000C000EFC
:1032140000070007000E000C000C000C000C000C52
:10322400003C003800000000000000000000000026
:1032340000008038807F004700000000000000008C
:08324400000000000000000082
:04324C007501000800
:043250004D01000824
:10325400010000001000000000127A000B120000B0
:04326400F02400084A
:0400000508001C5182
:00000001FF
